:1000000009C016C015C054C013C012C011C010C022
:100010000FC00EC011241FBECFE9CDBF20E0A0E667
:10002000B0E001C01D92A736B207E1F766D0DAC092
:10003000E7CF809166008295880F880F8074816079
:1000400087B9369A3699FECF84B195B108952AE4DE
:1000500039E0019708F40895F9013197F1F7F9CFE4
:1000600080916400909165008230910589F0833021
:100070009105B1F0019739F480ED97E0E8DF8FB595
:100080008F738FBDC09A109265001092640008951E
:1000900080ED97E0DCDF8FB58F7C8FBDC19AF3CF09
:1000A00080ED97E0D4DF8FB58F738FBDC09AF3CF0B
:1000B0001F920F920FB60F9211248F939F93AF93BD
:1000C000BF938091600090916100A0916200B09117
:1000D00063000196A11DB11D8093600090936100A3
:1000E000A0936200B0936300BF91AF919F918F91F5
:1000F0000F900FBE0F901F9018958FB583608FBD26
:1001000089B7826089BF83B7826083BF12BE78944B
:1001100086E886B9B89AB99A8FB7F894BC98C4980B
:100120008FBF8FB7F894BB98C3988FBF8FB7F894E1
:10013000BA98C2988FBF81E080936600C1E0D0E09A
:1001400078DF803E914088F0B49904C0D093650078
:10015000C0936400B39909C08091640090916500D8
:100160000296909365008093640080916400909162
:100170006500892B29F374DF5CDF833C914030F10B
:10018000B49B0BC08FB58F738FBDC098B39B0FC04E
:100190008FB58F7C8FBDC198EECF8FB58F738FBD1C
:1001A000B099F4CFD0936500C0936400EFCF8FB5C2
:1001B0008F7C8FBDB199DFCF8091640090916500F5
:1001C00002969093650080936400D5CF84EF91E010
:1001D0003EDF8FB58F738FBDC0988FB58F7C8FBD7D
:0801E000C198AECFF894FFCFE7
:00000001FF
